:020000040800F2
:100000000050002021020008270200082B020008EF
:100010009D020008A1020008E9020008000000009B
:100020000000000000000000000000003103000894
:10003000350300080000000039030008DD0A00084D
:100040004D0300084D0300084D0300084D03000850
:100050004D0300084D030008490B00084D0300083C
:100060004D0300084D0300084D0300084D03000830
:100070004D0300084D0300084D0300084D03000820
:10008000810B00084D0300084D0300084D030008D4
:100090004D0300084D0300084D0300084D03000800
:1000A0004D0300084D0300084D0300084D030008F0
:1000B0004D0300084D0300084D030008710B0008B4
:1000C000AD0C00084D0300084D0300084D03000867
:1000D0004D0300084D0300084D0300084D030008C0
:1000E0004D0300084D0300084D0300080000000008
:1000F0000000000000000000000000000000000000
:1001000000000000000000005FF808F100B583B0B7
:1001100000F0CCF9304B314A1360314A1360314B57
:10012000314A32498B4204D21168196004330432D7
:10013000F7E72A4B1A682E4B9A4200D0FEE7284B6D
:100140001A682C4B9A42F9D1234B2B4A13602B4A45
:1001500013602B4B02E000221A600433294A9342B9
:10016000F9D3254B1B6813B9244B1B6803B1FEE779
:1001700000F0A8F9694601A800F034F9224C234B9D
:10018000E41AA4100025AC4214DC214C214BE41AE3
:10019000A4100025AC4213DC0099019800F0F8FC93
:1001A00005461D4C1D4BE41AA410002C0EDC2846FD
:1001B00000F0EAF8154B53F8253098470135E2E78F
:1001C000144B53F8253098470135E3E7013C134BB6
:1001D00053F824309847E8E7BABADECA0000002096
:1001E000A4000020000000205C1A0008A8000020E5
:1001F0007856341232547698A8000020F801002076
:10020000A8000020FC010020780300087803000803
:1002100080030008780300088803000880030008B2
:1002200008B5FFF773FF00BEFEE71EF0040F0CBF1A
:10023000EFF30880EFF309807146414A10472DE93A
:10024000F04182B004468846124B5E6B9F6B9D6AFC
:100250001B6B13F0020F03D00E4BDB6A002B0CDB81
:100260000D4800F0C7F8CDF800803B4632462946DD
:10027000204600F02BF900BEFEE74BF6AB6100F024
:100280009FF90028ECD0034B4FF00042DA6202B035
:10029000BDE8F08100ED00E01C19000800BEFEE79B
:1002A0001EF0040F0CBFEFF30880EFF309807146D6
:1002B000244A10472DE9F04182B004468846084B95
:1002C0005E6B9F6B9D6A074800F094F8CDF8008044
:1002D0003B4632462946204600F0F8F800BEFEE7CD
:1002E00000ED00E02C1900081EF0040F0CBFEFF326
:1002F0000880EFF309807146134A10472DE9F04159
:1003000082B004468846084B5E6B9F6B9D6A074827
:1003100000F070F8CDF800803B4632462946204672
:1003200000F0D4F800BEFEE700ED00E03819000848
:1003300000BEFEE700BEFEE700BEFEE7704700001D
:100340003F020008B5020008FD02000800BEFEE7FB
:100350005C1A000800000020A80000205C1A0008B9
:100360000000000000000000A8000020FC010020A8
:100370000000000000000000A90800089D0D000812
:08038000B7080008AB0D0008EE
:10038800FEE7000008B5034800F048F80120FFF731
:10039800F7FF00BFEC17000808B503460C4A1268BF
:1003A8005AB10B4A1068033323F003030344094A84
:1003B800934206D8064A136008BD054A06491160EB
:1003C800EFE700F0A5FD0C2303604FF0FF30F3E7E3
:1003D800AC000020004C0020FC0100200123036039
:1003E800014B0B60704700BF040000200FB400B53C
:1003F80083B004AB53F8042B01938021064800F026
:10040800D9FE002803DD0146034800F047F803B091
:100418005DF804EB04B07047B400002010B5044642
:1004280000F094FE0146204600F038F80121024809
:1004380000F034F810BD00BF981800082DE9F0430B
:1004480085B004460F4643560BB10E461EE0042500
:1004580028462146ABBE0446384605B0BDE8F083C1
:1004680014F9011B04AA1A4402F8101C0133AB4208
:10047800F6D304AA1344002203F8102C4FF0040802
:10048800E94640464946ABBE8046761B002EE3D07F
:100498003546102E28BF10250023E8E708B5FFF7DA
:1004A800CDFF08BD08B500F0FDF8024A024B9A607E
:1004B80008BD00BF0000000800ED00E008B500F02E
:1004C80019F908BDF8B504460D4617461E462748D3
:1004D800FFF78CFF21682648FFF788FF61682548E9
:1004E800FFF784FFA1682448FFF780FFE1682348ED
:1004F800FFF77CFF21692248FFF778FF61692148EF
:10050800FFF774FFA1692048FFF770FFE1691F48F2
:10051800FFF76CFF1E48FFF769FF29461D48FFF7E4
:1005280065FF1D4CE16A1D48FFF760FF216B1C4801
:10053800FFF75CFFE16B1B48FFF758FF15F0800FD2
:100548000AD115F4004F0CD11748FFF74FFF069951
:100558001648FFF74BFFF8BD39461548FFF746FF29
:10056800EFE731461348FFF741FFEDE700180008B1
:100578001018000820180008301800084018000853
:100588005018000860180008701800088018000843
:10059800901800089C18000800ED00E0AC1800084E
:1005A800BC180008CC180008FC180008041900083A
:1005B800DC180008EC18000883691A888A4201D000
:1005C800002070470268033A012A03D80233836186
:1005D800012070470020704782B0002301930093E8
:1005E8002C4A136843F4803313602A4B1B6803F4C6
:1005F80000330093019B01330193009B1BB9019BBE
:10060800B3F5A06FF1D1234B1B6813F4003F06D05C
:1006180001230093009B012B04D002B070470023F4
:100628000093F7E71C4B1A6842F010021A601A6828
:1006380022F003021A601A6842F002021A60A3F557
:1006480080535A685A605A685A605A6842F48062FD
:100658005A605A6822F47C125A605A6842F4E812C6
:100668005A601A6842F080721A600A4B1B6813F0CD
:10067800007FFAD0074B5A6822F003025A605A6882
:1006880042F002025A60034B5B6803F00C03082B2C
:10069800F9D1C2E7001002400020024008B5FFF778
:1006A8009BFF08BD08B5104B1A6842F001021A609A
:1006B80059680E4A0A405A601A6822F0847222F475
:1006C80080321A601A6822F480221A605A6822F46A
:1006D800FE025A604FF41F029A60FFF7DFFF044BD7
:1006E8004FF000629A6008BD001002400000FFF859
:1006F80000ED00E01F4B5B6803F00C03042B15D0E2
:10070800082B17D01BB11C4B1C4A1A6002E01A4B6D
:100718001A4A1A60174B5B68C3F30313184AD35C71
:10072800DAB215490B68D3400B607047124B134A75
:100738001A60EFE70F4A53685268C3F383430233E2
:1007480012F4803F0AD00B4A526812F4003F0BD0D3
:100758000C4A02FB03F3084A1360DBE7094A02FB71
:1007680003F3054A1360D5E7044A02FB03F3024A80
:100778001360CFE7001002401C00002000127A002E
:100788000C00002000093D0030B585B00D4600245E
:10079800009401940294012000F00AFB0090431C8D
:1007A80002930470019304AA082302F8043D6946E1
:1007B8000E4800F083F8009808B100F00AFBEB68D7
:1007C80023F00103EB600A4B4022C3F880211A6032
:1007D80003F1C04303F50C539A6842F001029A6092
:1007E8001A6842F001021A6005B030BD00080140E5
:1007F80000E100E003780F2B05D00B2B01D000207F
:10080800704701207047012070470000F8B5044682
:100818000D46012805D01CB94FF6FF739D422AD01A
:10082800F8BD4FF6FF739942F5D1194E002737608E
:100838007760B760082000F0BBFA0346306000F12B
:10084800080CC6F808C0134A03CA18605960C6F8ED
:1008580004C0114E37607760B760052000F0A8FA31
:1008680003463060421DB2600C4908681860097977
:1008780019717260CFE7084B186808B100F0A9FA3F
:10088800034B18680028CBD000F0A3FAC8E700BFD4
:1008980040010020481900083401002050190008C0
:1008A80008B54FF6FF710120FFF7B0FF08BD08B586
:1008B8004FF6FF710020FFF7A9FF08BDF8B5044601
:1008C8000E461546284B984214D0284B984217D00C
:1008D8002846FFF78FFF20B1254A936943F00103AB
:1008E80093613368D6F804C04FF0FF300021074603
:1008F8000E4619E01E4A936943F004039361E7E743
:100908001B4A936943F008039361E1E7083B9B00A6
:100918004FF00F0E0EFA03FE20EA0E0095F800E0E5
:100928000EFA03F31943531C1A4663450FD01B787C
:10093800072BEBD89B004FF00F0E0EFA03FE27EAA9
:100948000E0795F800E00EFA03F31E43EBE7236861
:100958001F40276023681E43266063681840606054
:10096800636819436160F8BD00080140000C01404C
:100978000010024010B582B0124BDA6942F400123E
:10098800DA619A6942F009029A6102AA0F2302F811
:10099800043D011D0C48FFF791FF0C490C4B99428F
:1009A8000ED011F9013B03F01F005B0901228240C0
:1009B800084803F1600440F8242040F82320EDE7BC
:1009C80002B010BD00100240000C01405819000888
:1009D8005B19000800E100E0084B1A6842F4405235
:1009E80042F018021A60064A9A60064ADA60222221
:1009F8005A601A6842F001021A6070476C0002409F
:100A08001054004020000020704700000E4B1A8848
:100A180042F400421A801A88C2F30E021A804FF478
:100A280042729A8001221A8428229A831A8842F0F4
:100A380001021A809A8842F400629A801A8842F465
:100A480080721A80704700BF0054004008B5094BF7
:100A58009B8A9BB213F0010F05D113F0020F01D04E
:100A6800044B1B8B08BD0448FFF7D8FC014B7822C8
:100A78001A82F7E7005400405C190008054A1388F9
:100A880043F40073138013889BB223F001039BB2D5
:100A9800138070470054004010B50446074B1B886C
:100AA8009BB213B903781BB110BDFFF7E7FFFBE753
:100AB800FFF7ACFF01232370F6E700BF00540040A6
:100AC800034B1860024B1B68002BFBD1704700BF1B
:100AD8004C010020034B1B681BB1024A1368013B01
:100AE800136070474C01002070B504460D4601287C
:100AF80005D01CB94FF6FF739D4215D070BD4FF657
:100B0800FF739942F5D10C4E002333707360B360C4
:100B1800F360022000F04CF97060831CF360074A10
:100B280012880280B360E4E7034B58680028E5D0D8
:100B380000F04FF9E2E700BF5801002068190008EB
:100B480008B50648FFF76AFC054B01225A61BFF356
:100B58006F8F0448FFF7A0FF08BD00BF7019000899
:100B6800000401405801002008B50248FFF76EFF55
:100B780008BD00BF5801002008B50248FFF744FF30
:100B880008BD00BF5801002010B586B02448FFF703
:100B980045FC244C21682448FFF728FC2368234A95
:100BA800A2FB03239B09013BB3F1807F09D2204AB2
:100BB8005360204BF02183F8231000239360072310
:100BC80013600023029303930493022000F0F0F8CB
:100BD8000290831C0493184A12880280039306AA81
:100BE800032302F8043D02A91448FFF767FE0298A0
:100BF80008B100F0EEF8114AD36843F44063D360BB
:100C08000F4901A8FFF7C0FD0E4C2046FFF7B2FEC2
:100C18002046FFF7E1FE0120FFF752FFFBE700BF88
:100C2800E41900081C000020F8190008D34D6210D0
:100C380010E000E000ED00E06C190008000C014035
:100C4800000801405801002070B582B005460E46E4
:100C580071B1941B01940F2C0FD82868012C15D062
:100C6800C4B9019B6B602A680021D15402B070BDE1
:100C78009142EED00A4800F045F9002201A9284621
:100C880000F0B6F82860019BAB60E6E796F9003003
:100C98000370E6E72246314600F05EF9E1E700BF5F
:100CA800B819000810B586B002AB009331494FF06F
:100CB80000030A460F396846FFF7C6FF2E4B9A8A8B
:100CC8002E4C2F49204600F021FA204600F03EFA2B
:100CD800019BC3F1FF4303F5FF0303F5FF437F3394
:100CE80098423ED802462549684600F0EBF8019B39
:100CF800C3F1FF4303F5FF0303F5FF437F33052BE0
:100D080032D906221F49684600F0DCF81A4B1A8BC4
:100D18001A4C1B49204600F0F9F9204600F016FA53
:100D2800019BC3F1FF4303F5FF0303F5FF437F3343
:100D380098421CD802461149684600F0C3F800984A
:100D4800FFF76CFB1048FFF799FE104B0122C3F820
:100D58008421009802AB984201D000F03AF806B01E
:100D680010BD0B4800F0D1F8094800F0CEF808484B
:100D780000F0CBF88F190008005400405001002003
:100D880090190008B01900085801002000E100E09F
:100D98009819000808B54FF6FF710120FFF7A4FE67
:100DA80008BD08B54FF6FF710020FFF79DFE08BD8E
:100DB80010B5002814BF04460124204600F0AEF800
:100DC80030B900F009F808B9FFF7DCFA8047F4E712
:100DD80010BD00F0ABB80000024B1868BFF35B8F82
:100DE800704700BFE80100200AB100F0B5B87047AD
:100DF80008B50B68002B02DA094800F086F8934220
:100E080008D95200934205D2002AB6BF6FF00043BA
:100E18000A600B600868BDE808400130FFF7C8BFEA
:100E2800101A0008034653F8080B984201D0FFF740
:100E3800D0BF7047012A10B502D10A78027010BDE0
:100E4800FFF7D2FFFBE72DE9F3471646DDF82880C8
:100E580042689A46A8EB0603571A1344026801939E
:100E680000F108039A420D4614BF82680F2201A9B7
:100E78000446FFF7BDFFBF1B81461DB12A46216806
:100E8800FFF7D8FFBAF1000F08D0B8F1000F05D06E
:100E98004246514609EB0500FFF7CCFF47B12168F0
:100EA8002E4405EB08003A4631444844FFF7C2FF98
:100EB8002046FFF7B7FF019BC4F80090A36002B07B
:100EC800BDE8F08773B50446264656F8083B4068E7
:100ED800B3420CBF0F26A6688518B5420AD812B1CE
:100EE8001844FFF7A7FF00222046236865605A557B
:100EF80002B070BD00920B46002201462046FFF763
:100F0800A2FFF0E708B5FFF73DFA08B5FFF73AFA90
:100F1800014B1868704700BF40000020024B014693
:100F2800186800F089B800BF40000020024B014655
:100F3800186800F035B800BF4000002010B5C9B2ED
:100F480002449042034601D1002303E01C7801309B
:100F58008C42F6D1184610BD10B5431E0A44914282
:100F680000D110BD11F8014B03F8014FF7E7884293
:100F780010B501EB020307D8421E99420AD011F8B6
:100F8800014B02F8014FF8E78342F5D98118D21ACC
:100F9800D34200D110BD13F8014D01F8014DF7E718
:100FA80038B50546002943D051F8043C0C1F002BE6
:100FB800B8BFE41800F00CF91E4A1368104633B99C
:100FC800636014602846BDE8384000F002B9A342C7
:100FD8000BD921686218934201BF1A685B685218DE
:100FE800226063600460EDE713465A680AB1A242C2
:100FF800FAD919685818A0420BD12068014458182A
:1010080082421960DED110685268014419605A6042
:10101800D8E702D90C232B60D4E7206821188A422C
:1010280001BF116852680918216062605C60C9E7F5
:1010380038BD00BFEC01002070B5CD1C25F00305BC
:1010480008350C2D38BF0C25002D064601DBA942BA
:1010580003D90C233360002070BD00F0B9F8214A91
:101068001468214691B9204C23681BB9304600F01A
:101078003DF820602946304600F038F8431C24D15A
:101088000C233046336000F0A4F8E4E70B685B1BE0
:1010980018D40B2B0FD90B60CC18CD50304600F06C
:1010A80098F804F10B00231D20F00700C31AD3D0D1
:1010B8005A42E250D0E74B688C4216BF6360136017
:1010C8000C46EBE70C464968CCE7C41C24F0030443
:1010D800A04205D0211A304600F008F80130CFD0E0
:1010E8002560DBE7EC010020F001002038B5002383
:1010F800054C054608462360FFF74EF9431C02D10C
:10110800236803B12B6038BDF40100200EB46FF0E2
:10111800004100B59CB01DAB029006900791049168
:101128000848094953F8042B0591006802A901935E
:1011380000F0AAF80022029B1A701CB05DF804EBBC
:1011480003B07047400000200802FFFF034613F871
:10115800012B002AFBD1181A0138704730B5141E2C
:1011680005469BB0184605DA8B234FF0FF302B60FD
:101178001BB030BD4FF40273ADF80C300CBF2346E2
:1011880004F1FF33029305934FF6FF730091049126
:10119800ADF80E3002461E9B6946284600F074F8EA
:1011A800431CBCBF8B232B60002CE1D00022009B8A
:1011B8001A70DDE707B5009313460A46014603484F
:1011C8000068FFF7CBFF03B05DF804FB4000002088
:1011D800704770472DE9F0478E6882469E420C465C
:1011E8009046994637D88A8912F4906F31D00223F5
:1011F800256809696F1A656905EB450595FBF3F5DF
:1012080009F101033B449D4238BF1D46530530D5C3
:101218002946FFF711FF064650B90C234FF0FF305F
:10122800CAF80030A38943F04003A381BDE8F087E2
:101238003A462169FFF790FEA38923F4906343F0AF
:101248008003A38126613E4426604E466561ED1BFE
:10125800A5604E4500D94E46324641462068FFF704
:1012680086FEA36800209B1BA36023681E4426609B
:10127800DCE72A4600F088FA06460028E2D1216910
:101288005046FFF78DFEC8E72DE9F04F1D468B89C4
:101298009DB01F0680460C4616460FD50B696BB9E4
:1012A8004021FFF7C9FE2060206128B90C23C8F847
:1012B80000304FF0FF30C8E04023636100230993FA
:1012C80020238DF8293030234FF0010B8DF82A3078
:1012D800039537463D4615F8013B0BB1252B3ED10A
:1012E800B7EB060A0BD05346324621464046FFF775
:1012F80071FF013000F0A480099B534409933B78A7
:10130800002B00F09D8000234FF0FF32CDE905232C
:10131800049307938DF853301A932F46052217F834
:10132800011B5048FFF70AFE049BD0B9D90644BFF9
:1013380020228DF853201A0744BF2B228DF8532002
:101348002A782A2A15D02F4600200A25079A3946D6
:1013580011F8013B303B092B4DD9B8B10FE02F46AE
:10136800B8E7404A3D46801A0BFA00F0184304904B
:10137800D3E7039A111D12680391002A01DB079233
:1013880004E0524243F00203079204933B782E2B69
:101398000CD17B782A2B33D1039B02371A1D1B688B
:1013A8000392002BB8BF4FF0FF3305932E4D032255
:1013B80039782846FFF7C2FD38B14023401B03FAAD
:1013C80000F0049B01370343049339780622274829
:1013D8007E1C8DF82810FFF7B1FD002838D0244B6B
:1013E80013BB039B073323F0070308330393099BBD
:1013F8004B4409936DE705FB023201200F46A6E72F
:1014080000230A25194601370593384610F8012BA1
:10141800303A092A03D9002BC8D00591C6E705FB45
:10142800012101230746F0E703AB00932246114B45
:1014380004A94046AFF30080B0F1FF3F8146D6D102
:10144800A3895B063FF535AF09981DB0BDE8F08F5D
:1014580003AB00932246074B04A9404600F082F8EC
:10146800EAE700BF281A00082E1A0008321A0008F6
:1014780000000000DD1100082DE9F04791461F46E5
:101488008A680B6906469342B8BF1346C9F800300C
:1014980091F843200C46DDF8208012B10133C9F8D9
:1014A80000302368990642BFD9F800300233C9F8E2
:1014B8000030256815F0060507D104F1190AE3681C
:1014C800D9F800209B1AAB4229DC94F843302268F3
:1014D800003318BF012392062ED404F14302394683
:1014E8003046C047013021D02368E56803F0060381
:1014F800042B18BF0025D9F800204FF0000908BFB9
:10150800AD1AA368226908BF25EAE5759342C4BFEE
:101518009B1AED181A344D451AD1002008E0012312
:10152800524639463046C047013003D14FF0FF30AC
:10153800BDE8F0870135C2E73020E11881F84300A3
:101548005A1C94F845102244023382F84310C4E729
:101558000123224639463046C0470130E6D009F11A
:101568000109D8E72DE9F04301F1430C0C46097E47
:1015780085B06E291746064698460C9A00F0B38047
:1015880022D8632936D00AD8002900F0B980582912
:1015980000F0838004F1420584F8421032E06429A7
:1015A80001D06929F6D120681368050603F1040102
:1015B8002AD51B681160002B03DA2D225B4284F8C0
:1015C80043206F480A2239E0732900F09D8008D82B
:1015D8006F2920D07029DDD1236843F020032360D0
:1015E80003E0752917D07829D4D17823654884F881
:1015F800453055E0136804F14205191D1B68116058
:1016080084F8423001238CE01B6810F0400F116011
:1016180018BF1BB2CFE713682568181D106028068D
:1016280001D51B6802E06806FBD51B886F2914BF2B
:101638000A2208225248002184F843106568002DC8
:10164800A560C0F29580216821F004012160002B7B
:101658003DD1002D40F08E806546082A0BD12368C5
:10166800DB0708D5236962689A42DEBF302305F894
:10167800013C05F1FF35ACEB05032361CDF8008093
:101688003B4603AA21463046FFF7F6FE01304DD10E
:101698004FF0FF3005B0BDE8F083394884F84510B5
:1016A800136821681D1D1B6815600A060BD5CA073B
:1016B80044BF41F0200121601BB9226822F02002BA
:1016C80022601022B7E74D0648BF9BB2EFE7654698
:1016D800B3FBF2F102FB1133C35C05F8013D0B4685
:1016E8000029F5D1B9E713682568181D61691060EC
:1016F80028061B6801D5196002E06A06FBD5198027
:10170800002365462361B9E71368191D11601D6838
:10171800626800212846FFF711FC08B1401B606091
:1017280063682361002384F84330A7E723692A46C6
:1017380039463046C0470130AAD023689B0713D4E6
:10174800E068039B9842B8BF1846A3E701234A46BE
:1017580039463046C04701309AD00135E368039ACC
:101768009B1AAB42F2DCEBE7002504F11909F5E717
:10177800002BACD1037804F1420584F842306CE7C1
:10178800391A00084A1A0008F8B5074614460E46E2
:1017980021B9BDE8F8401146FFF74EBC22B9FFF762
:1017A800FFFB25462846F8BD00F014F8A0420FD2EA
:1017B80021463846FFF740FC05460028F2D031465E
:1017C8002246FFF7C9FB31463846FFF7E9FBE9E750
:1017D8003546E7E751F8043C181F002BBCBF0B58EF
:1017E800C018704761626F727428292C2065786967
:1017F80074696E672E2E2E00537461636B206672B7
:10180800616D653A0A000000205230203D202025F5
:101818003038580A00000000205231203D20202591
:101828003038580A00000000205232203D20202580
:101838003038580A00000000205233203D2020256F
:101848003038580A0000000020523132203D20254F
:101858003038580A00000000204C52203D20202536
:101868003038580A00000000205043203D20202531
:101878003038580A0000000020505352203D2025DF
:101888003038580A000000004653522F4641523A59
:101898000A0000002043465352203D2020253038BE
:1018A800580A00002048465352203D202025303851
:1018B800580A00002044465352203D202025303845
:1018C800580A00002041465352203D202025303838
:1018D800580A0000204D4D464152203D2025303801
:1018E800580A00002042464152203D202025303829
:1018F800580A00004D6973630A000000204C522FFB
:101908004558435F52455455524E3D20253038586E
:101918000A0000005B486172644661756C745D0A78
:10192800000000005B4275734661756C745D0A00C7
:101938005B55736167654661756C745D0A000000EC
:1019480000010205060708090A0B0C0D0E0000002D
:10195800201F10004932432073746172746564005B
:10196800060700000A0B000045787469302074727D
:101978006967676572656400493243206572726FF2
:10198800723A205352313A00253034580000000092
:1019980062617369635F737472696E673A3A617002
:1019A80070656E64000000002C205352323A00002B
:1019B80062617369635F737472696E673A3A5F4D07
:1019C8005F636F6E737472756374206E756C6C20D0
:1019D8006E6F742076616C696400000048656C6CF9
:1019E8006F2041524D20576F726C64210000000037
:1019F80053797374656D20636C6F636B3A2025753A
:101A080020487A0A0000000062617369635F73749A
:101A180072696E673A3A5F4D5F637265617465001B
:101A2800232D302B2000686C4C00656667454647BF
:101A38000030313233343536373839414243444542
:101A480046003031323334353637383961626364B1
:031A5800656600C0
:101A5C0078563412B0000020000000000000000096
:101A6C0000000000010203040607080900A24A0452
:101A7C0000A83F00D300004000A000C000DA120014
:101A8C00814000A400A600D580008D1400AF00207A
:101A9C0044000020000000000000000000000000D6
:101AAC00000000000000000000000000000000002A
:101ABC00000000000000000000000000000000001A
:101ACC00000000000000000000000000000000000A
:101ADC0000000000000000000000000000000000FA
:101AEC0000000000000000000000000000000000EA
:081AFC0000000000325476984E
:040000050800010DE1
:00000001FF
