:020000040800F2
:100000000050002021020008270200082B020008EF
:100010009D020008A1020008E9020008000000009B
:100020000000000000000000000000003103000894
:10003000350300080000000039030008ED0900083E
:100040004D0300084D0300084D0300084D03000850
:100050004D0300084D030008550A00084D03000831
:100060004D0300084D0300084D0300084D03000830
:100070004D0300084D0300084D0300084D03000820
:100080004D0300084D0300084D0300084D03000810
:100090004D0300084D0300084D0300084D03000800
:1000A0004D0300084D0300084D0300084D030008F0
:1000B0004D0300084D0300084D030008D509000852
:1000C000D70900084D0300084D0300084D03000840
:1000D0004D0300084D0300084D0300084D030008C0
:1000E0004D0300084D0300084D0300080000000008
:1000F0000000000000000000000000000000000000
:1001000000000000000000005FF808F100B583B0B7
:1001100000F0CCF9304B314A1360314A1360314B57
:10012000314A32498B4204D21168196004330432D7
:10013000F7E72A4B1A682E4B9A4200D0FEE7284B6D
:100140001A682C4B9A42F9D1234B2B4A13602B4A45
:1001500013602B4B02E000221A600433294A9342B9
:10016000F9D3254B1B6813B9244B1B6803B1FEE779
:1001700000F0A8F9694601A800F034F9224C234B9D
:10018000E41AA4100025AC4214DC214C214BE41AE3
:10019000A4100025AC4213DC0099019800F068FC23
:1001A00005461D4C1D4BE41AA410002C0EDC2846FD
:1001B00000F0EAF8154B53F8253098470135E2E78F
:1001C000144B53F8253098470135E3E7013C134BB6
:1001D00053F824309847E8E7BABADECA0000002096
:1001E00084000020000000209815000888000020EE
:1001F0007856341232547698880000204C01002042
:1002000088000020500100207803000878030008CF
:1002100080030008780300088803000880030008B2
:1002200008B5FFF773FF00BEFEE71EF0040F0CBF1A
:10023000EFF30880EFF309807146414A10472DE93A
:10024000F04182B004468846124B5E6B9F6B9D6AFC
:100250001B6B13F0020F03D00E4BDB6A002B0CDB81
:100260000D4800F0C7F8CDF800803B4632462946DD
:10027000204600F02BF900BEFEE74BF6AB6100F024
:100280009FF90028ECD0034B4FF00042DA6202B035
:10029000BDE8F08100ED00E0F814000800BEFEE7C4
:1002A0001EF0040F0CBFEFF30880EFF309807146D6
:1002B000244A10472DE9F04182B004468846084B95
:1002C0005E6B9F6B9D6A074800F094F8CDF8008044
:1002D0003B4632462946204600F0F8F800BEFEE7CD
:1002E00000ED00E0081500081EF0040F0CBFEFF34E
:1002F0000880EFF309807146134A10472DE9F04159
:1003000082B004468846084B5E6B9F6B9D6A074827
:1003100000F070F8CDF800803B4632462946204672
:1003200000F0D4F800BEFEE700ED00E01415000870
:1003300000BEFEE700BEFEE700BEFEE7704700001D
:100340003F020008B5020008FD02000800BEFEE7FB
:10035000981500080000002088000020981500086B
:100360000000000000000000880000205001002074
:10037000000000000000000099080008E10A0008E1
:08038000A7080008EF0A0008BD
:10038800FEE7000008B5034800F048F80120FFF731
:10039800F7FF00BFC813000808B503460C4A1268E7
:1003A8005AB10B4A1068033323F003030344094A84
:1003B800934206D8064A136008BD054A06491160EB
:1003C800EFE700F0B3FB0C2303604FF0FF30F3E7D7
:1003D8008C000020004C0020500100200123036005
:1003E800014B0B60704700BF040000200FB400B53C
:1003F80083B004AB53F8042B01938021064800F026
:1004080095FC002803DD0146034800F047F803B0D7
:100418005DF804EB04B070479400002010B5044662
:1004280000F050FC0146204600F038F8012102484F
:1004380000F034F810BD00BF741400082DE9F04333
:1004480085B004460F4643560BB10E461EE0042500
:1004580028462146ABBE0446384605B0BDE8F083C1
:1004680014F9011B04AA1A4402F8101C0133AB4208
:10047800F6D304AA1344002203F8102C4FF0040802
:10048800E94640464946ABBE8046761B002EE3D07F
:100498003546102E28BF10250023E8E708B5FFF7DA
:1004A800CDFF08BD08B500F0FDF8024A024B9A607E
:1004B80008BD00BF0000000800ED00E008B500F02E
:1004C80019F908BDF8B504460D4617461E462748D3
:1004D800FFF78CFF21682648FFF788FF61682548E9
:1004E800FFF784FFA1682448FFF780FFE1682348ED
:1004F800FFF77CFF21692248FFF778FF61692148EF
:10050800FFF774FFA1692048FFF770FFE1691F48F2
:10051800FFF76CFF1E48FFF769FF29461D48FFF7E4
:1005280065FF1D4CE16A1D48FFF760FF216B1C4801
:10053800FFF75CFFE16B1B48FFF758FF15F0800FD2
:100548000AD115F4004F0CD11748FFF74FFF069951
:100558001648FFF74BFFF8BD39461548FFF746FF29
:10056800EFE731461348FFF741FFEDE7DC130008DA
:10057800EC130008FC1300080C1400081C140008F5
:100588002C1400083C1400084C1400085C140008E3
:100598006C1400087814000800ED00E088140008C6
:1005A80098140008A8140008D8140008E0140008DB
:1005B800B8140008C814000883691A888A4201D050
:1005C800002070470268033A012A03D80233836186
:1005D800012070470020704782B0002301930093E8
:1005E8002C4A136843F4803313602A4B1B6803F4C6
:1005F80000330093019B01330193009B1BB9019BBE
:10060800B3F5A06FF1D1234B1B6813F4003F06D05C
:1006180001230093009B012B04D002B070470023F4
:100628000093F7E71C4B1A6842F010021A601A6828
:1006380022F003021A601A6842F002021A60A3F557
:1006480080535A685A605A685A605A6842F48062FD
:100658005A605A6822F47C125A605A6842F4E812C6
:100668005A601A6842F080721A600A4B1B6813F0CD
:10067800007FFAD0074B5A6822F003025A605A6882
:1006880042F002025A60034B5B6803F00C03082B2C
:10069800F9D1C2E7001002400020024008B5FFF778
:1006A8009BFF08BD08B5104B1A6842F001021A609A
:1006B80059680E4A0A405A601A6822F0847222F475
:1006C80080321A601A6822F480221A605A6822F46A
:1006D800FE025A604FF41F029A60FFF7DFFF044BD7
:1006E8004FF000629A6008BD001002400000FFF859
:1006F80000ED00E01F4B5B6803F00C03042B15D0E2
:10070800082B17D01BB11C4B1C4A1A6002E01A4B6D
:100718001A4A1A60174B5B68C3F30313184AD35C71
:10072800DAB215490B68D3400B607047124B134A75
:100738001A60EFE70F4A53685268C3F383430233E2
:1007480012F4803F0AD00B4A526812F4003F0BD0D3
:100758000C4A02FB03F3084A1360DBE7094A02FB71
:1007680003F3054A1360D5E7044A02FB03F3024A80
:100778001360CFE7001002401C00002000127A002E
:100788000C00002000093D0010B584B00C46002381
:1007980000930193029304AA082302F8043D6946D2
:1007A8000E4800F083F8009808B100F0B4F9E36847
:1007B80023F00103E3600A4B4022C3F880211A604A
:1007C80003F1C04303F50C539A6842F001029A60A2
:1007D8001A6842F001021A6004B010BD0008014016
:1007E80000E100E003780F2B05D00B2B01D000208F
:1007F800704701207047012070470000F8B5044693
:100808000D46012805D01CB94FF6FF739D422AD02A
:10081800F8BD4FF6FF739942F5D1194E002737609E
:100828007760B760082000F065F90346306000F192
:10083800080CC6F808C0134A03CA18605960C6F8FD
:1008480004C0114E37607760B760052000F052F998
:1008580003463060421DB2600C4908681860097987
:1008680019717260CFE7084B186808B100F053F9A6
:10087800034B18680028CBD000F04DF9C8E700BF3B
:100888002001002024150008140100202C15000860
:1008980008B54FF6FF710120FFF7B0FF08BD08B596
:1008A8004FF6FF710020FFF7A9FF08BD2DE9F041C1
:1008B80006460D4614462B4B984212D02A4B9842B6
:1008C80015D02046FFF78EFF20B1284A936943F0E0
:1008D8000103936100224FF0FF3017468446964685
:1008E8001BE0224A936943F004039361E9E71F4A36
:1008F800936943F008039361E3E72178083B9B0081
:1009080001FA03F847EA0807C94301F00F0101FAA1
:1009180003F320EA03000132D2B20B2A11D82B6864
:100928009B5C072BE9D821789B0001FA03F84EEA73
:10093800080EC94301F00F0101FA03F32CEA030C76
:10094800E9E7336843EA0E033360336803EA0C03CC
:10095800336073681F437760736818407060BDE840
:10096800F08100BF00080140000C01400010024067
:1009780000B583B00E4BDA6942F40012DA619A6965
:1009880042F009029A6102AA0B2302F8043D0146CB
:100998000848FFF78BFF084B4FF442729A800922F0
:1009A8001A841A8842F001021A8003B05DF804FB29
:1009B80000100240000C014000540040024A138815
:1009C80043F48073138070470054004070477047A9
:1009D800034B1860024B1B68002BFBD1704700BF0C
:1009E8002C010020034B1B681BB1024A1368013B12
:1009F800136070472C01002070B504460D4601288D
:100A080005D01CB94FF6FF739D4214D070BD4FF648
:100A1800FF739942F5D10B4E002333607360B360C6
:100A2800022000F067F83060831CB360064A128821
:100A380002807360E5E7034B18680028E6D000F0F1
:100A48006AF8E3E7300100203415000808B5044BC4
:100A580001225A61BFF36F8F0248FFF7AFFF08BD4D
:100A6800000401403001002010B582B01248FFF7A1
:100A7800D5FC124C21681248FFF7B8FC2368114ACC
:100A8800A2FB03239B09013BB3F1807F09D20E4AE5
:100A980053600E4BF02183F8231000239360072343
:100AA80013600B4901A8FFF76FFE0A48FFF760FFC4
:100AB8000120FFF78DFFFBE7381500081C00002018
:100AC8004C150008D34D621010E000E000ED00E086
:100AD800000801403001002008B54FF6FF710120E1
:100AE800FFF78AFF08BD08B54FF6FF710020FFF732
:100AF80083FF08BD10B5002814BF04460124204612
:100B080000F01AF830B900F009F808B9FFF73AFC14
:100B18008047F4E710BD00F017B80000024B1868D2
:100B2800BFF35B8F704700BF3C010020014B186882
:100B3800704700BF20000020024B0146186800F0F3
:100B480057B800BF20000020024B0146186800F08B
:100B580003B800BF2000002038B50546002943D05F
:100B680051F8043C0C1F002BB8BFE41800F0ECF857
:100B78001E4A1368104633B9636014602846BDE8FE
:100B8800384000F0E2B8A3420BD9216862189342BA
:100B980001BF1A685B685218226063600460EDE761
:100BA80013465A680AB1A242FAD919685818A042DD
:100BB8000BD120680144581882421960DED11068B0
:100BC8005268014419605A60D8E702D90C232B6097
:100BD800D4E7206821188A4201BF116852680918B1
:100BE800216062605C60C9E738BD00BF4001002039
:100BF80070B5CD1C25F0030508350C2D38BF0C2524
:100C0800002D064601DBA94203D90C2333600020DE
:100C180070BD00F099F8214A1468214691B9204C1A
:100C280023681BB9304600F03DF82060294630465D
:100C380000F038F8431C24D10C233046336000F010
:100C480084F8E4E70B685B1B18D40B2B0FD90B60F7
:100C5800CC18CD50304600F078F804F10B00231D75
:100C680020F00700C31AD3D05A42E250D0E74B68AD
:100C78008C4216BF636013600C46EBE70C4649686C
:100C8800CCE7C41C24F00304A04205D0211A304646
:100C980000F008F80130CFD02560DBE740010020E4
:100CA8004401002038B50023054C0546084623605A
:100CB800FFF772FB431C02D1236803B12B6038BDD8
:100CC80048010020034613F8012B002AFBD1181A0B
:100CD8000138704730B5141E05469BB0184605DA32
:100CE8008B234FF0FF302B601BB030BD4FF40273E5
:100CF800ADF80C300CBF234604F1FF330293059383
:100D08004FF6FF7300910491ADF80E3002461E9B1A
:100D18006946284600F074F8431CBCBF8B232B603F
:100D2800002CE1D00022009B1A70DDE707B5009384
:100D380013460A46014603480068FFF7CBFF03B095
:100D48005DF804FB20000020704770472DE9F0474C
:100D58008E6882469E420C469046994637D88A89C4
:100D680012F4906F31D00223256809696F1A6569FA
:100D780005EB450595FBF3F509F101033B449D425D
:100D880038BF1D46530530D52946FFF731FF0646C3
:100D980050B90C234FF0FF30CAF80030A38943F054
:100DA8004003A381BDE8F0873A46216900F0B6FA0E
:100DB800A38923F4906343F08003A38126613E4412
:100DC80026604E466561ED1BA5604E4500D94E462E
:100DD80032464146206800F0ACFAA36800209B1B0D
:100DE800A36023681E442660DCE72A4600F0BAFAAE
:100DF80006460028E2D121695046FFF7ADFEC8E754
:100E08002DE9F04F1D468B899DB01F0680460C4684
:100E180016460FD50B696BB94021FFF7E9FE206034
:100E2800206128B90C23C8F800304FF0FF30C8E023
:100E3800402363610023099320238DF82930302350
:100E48004FF0010B8DF82A30039537463D4615F8CB
:100E5800013B0BB1252B3ED1B7EB060A0BD053460D
:100E6800324621464046FFF771FF013000F0A4806A
:100E7800099B534409933B78002B00F09D80002385
:100E88004FF0FF32CDE90523049307938DF85330D3
:100E98001A932F46052217F8011B504800F030FA24
:100EA800049BD0B9D90644BF20228DF853201A07D5
:100EB80044BF2B228DF853202A782A2A15D02F4692
:100EC80000200A25079A394611F8013B303B092BC7
:100ED8004DD9B8B10FE02F46B8E7404A3D46801AD1
:100EE8000BFA00F018430490D3E7039A111D126817
:100EF8000391002A01DB079204E0524243F0020307
:100F0800079204933B782E2B0CD17B782A2B33D174
:100F1800039B02371A1D1B680392002BB8BF4FF0C2
:100F2800FF3305932E4D03223978284600F0E8F95F
:100F380038B14023401B03FA00F0049B01370343F8
:100F480004933978062227487E1C8DF8281000F073
:100F5800D7F9002838D0244B13BB039B073323F061
:100F6800070308330393099B4B4409936DE705FB7B
:100F7800023201200F46A6E700230A251946013749
:100F88000593384610F8012B303A092A03D9002B6B
:100F9800C8D00591C6E705FB012101230746F0E704
:100FA80003AB00932246114B04A94046AFF30080DF
:100FB800B0F1FF3F8146D6D1A3895B063FF535AF37
:100FC80009981DB0BDE8F08F03AB00932246074B8C
:100FD80004A9404600F082F8EAE700BF641500085B
:100FE8006A1500086E15000800000000550D00087D
:100FF8002DE9F04791461F468A680B6906469342D9
:10100800B8BF1346C9F8003091F843200C46DDF804
:10101800208012B10133C9F800302368990642BF15
:10102800D9F800300233C9F80030256815F00605F4
:1010380007D104F1190AE368D9F800209B1AAB42DA
:1010480029DC94F843302268003318BF0123920644
:101058002ED404F1430239463046C047013021D02E
:101068002368E56803F00603042B18BF0025D9F8A8
:1010780000204FF0000908BFAD1AA368226908BF15
:1010880025EAE5759342C4BF9B1AED181A344D45FD
:101098001AD1002008E00123524639463046C0479D
:1010A800013003D14FF0FF30BDE8F0870135C2E7CA
:1010B8003020E11881F843005A1C94F84510224466
:1010C800023382F84310C4E70123224639463046EA
:1010D800C0470130E6D009F10109D8E72DE9F0430E
:1010E80001F1430C0C46097E85B06E291746064669
:1010F80098460C9A00F0B38022D8632936D00AD8D3
:10110800002900F0B980582900F0838004F14205D5
:1011180084F8421032E0642901D06929F6D12068A8
:101128001368050603F104012AD51B681160002B1A
:1011380003DA2D225B4284F843206F480A2239E003
:10114800732900F09D8008D86F2920D07029DDD13F
:10115800236843F02003236003E0752917D078291A
:10116800D4D17823654884F8453055E0136804F1F4
:101178004205191D1B68116084F8423001238CE078
:101188001B6810F0400F116018BF1BB2CFE713683F
:101198002568181D1060280601D51B6802E068063E
:1011A800FBD51B886F2914BF0A2208225248002148
:1011B80084F843106568002DA560C0F29580216809
:1011C80021F004012160002B3DD1002D40F08E80DC
:1011D8006546082A0BD12368DB0708D523696268AE
:1011E8009A42DEBF302305F8013C05F1FF35ACEB30
:1011F80005032361CDF800803B4603AA214630460B
:10120800FFF7F6FE01304DD14FF0FF3005B0BDE8D5
:10121800F083394884F84510136821681D1D1B6840
:1012280015600A060BD5CA0744BF41F020012160AA
:101238001BB9226822F0200222601022B7E74D066F
:1012480048BF9BB2EFE76546B3FBF2F102FB1133EF
:10125800C35C05F8013D0B460029F5D1B9E71368D1
:101268002568181D6169106028061B6801D519607A
:1012780002E06A06FBD51980002365462361B9E7B9
:101288001368191D11601D6862680021284600F066
:1012980037F808B1401B606063682361002384F855
:1012A8004330A7E723692A4639463046C04701300C
:1012B800AAD023689B0713D4E068039B9842B8BF61
:1012C8001846A3E701234A4639463046C04701304D
:1012D8009AD00135E368039A9B1AAB42F2DCEBE73C
:1012E800002504F11909F5E7002BACD1037804F1C6
:1012F800420584F842306CE7751500088615000829
:1013080010B5C9B202449042034601D1002303E05C
:101318001C7801308C42F6D1184610BD10B5431E1A
:101328000A44914200D110BD11F8014B03F8014F56
:10133800F7E7884210B501EB020307D8421E99422D
:101348000AD011F8014B02F8014FF8E78342F5D9AA
:101358008118D21AD34200D110BD13F8014D01F8FB
:10136800014DF7E7F8B5074614460E4621B9BDE822
:10137800F8401146FFF73CBC22B9FFF7EDFB2546C4
:101388002846F8BD00F014F8A0420FD2214638468E
:10139800FFF72EFC05460028F2D031462246FFF71B
:1013A800BDFF31463846FFF7D7FBE9E73546E7E7A3
:1013B80051F8043C181F002BBCBF0B58C0187047CD
:1013C80061626F727428292C2065786974696E6768
:1013D8002E2E2E00537461636B206672616D653A20
:1013E8000A000000205230203D2020253038580ABD
:1013F80000000000205231203D2020253038580AB6
:1014080000000000205232203D2020253038580AA4
:1014180000000000205233203D2020253038580A93
:101428000000000020523132203D20253038580A73
:1014380000000000204C52203D2020253038580A5A
:1014480000000000205043203D2020253038580A55
:101458000000000020505352203D20253038580A03
:10146800000000004653522F4641523A0A0000003D
:101478002043465352203D2020253038580A00008A
:101488002048465352203D2020253038580A000075
:101498002044465352203D2020253038580A000069
:1014A8002041465352203D2020253038580A00005C
:1014B800204D4D464152203D20253038580A000025
:1014C8002042464152203D2020253038580A00004D
:1014D8004D6973630A000000204C522F4558435F42
:1014E80052455455524E3D20253038580A000000C8
:1014F8005B486172644661756C745D0A00000000A7
:101508005B4275734661756C745D0A005B55736167
:1015180067654661756C745D0A000000000102058C
:10152800060708090A0B0C0D0E000000060700004C
:1015380048656C6C6F2041524D20576F726C642166
:101548000000000053797374656D20636C6F636BE2
:101558003A20257520487A0A00000000232D302BF8
:101568002000686C4C00656667454647003031329C
:1015780033343536373839414243444546003031F3
:0F15880032333435363738396162636465660053
:10159800785634129000002000000000000000007F
:1015A80000000000010203040607080900A24A041B
:1015B80024000020000000000000000000000000DF
:1015C8000000000000000000000000000000000013
:1015D8000000000000000000000000000000000003
:1015E80000000000000000000000000000000000F3
:1015F80000000000000000000000000000000000E3
:1016080000000000000000000000000000000000D2
:08161800000000003254769836
:040000050800010DE1
:00000001FF
